{"abi":[{"type":"receive","stateMutability":"payable"},{"type":"function","name":"DEFAULT_ADMIN_ROLE","inputs":[],"outputs":[{"name":"","type":"bytes32","internalType":"bytes32"}],"stateMutability":"view"},{"type":"function","name":"claimAllTokens","inputs":[],"outputs":[],"stateMutability":"nonpayable"},{"type":"function","name":"claimToken","inputs":[{"name":"tokenAddress","type":"address","internalType":"address"}],"outputs":[],"stateMutability":"nonpayable"},{"type":"function","name":"depositERC20","inputs":[{"name":"tokenAddress","type":"address","internalType":"contract IERC20"},{"name":"amount","type":"uint256","internalType":"uint256"}],"outputs":[{"name":"","type":"bool","internalType":"bool"}],"stateMutability":"nonpayable"},{"type":"function","name":"depositETH","inputs":[],"outputs":[{"name":"","type":"bool","internalType":"bool"}],"stateMutability":"payable"},{"type":"function","name":"ethAddress","inputs":[],"outputs":[{"name":"","type":"address","internalType":"address"}],"stateMutability":"view"},{"type":"function","name":"getRoleAdmin","inputs":[{"name":"role","type":"bytes32","internalType":"bytes32"}],"outputs":[{"name":"","type":"bytes32","internalType":"bytes32"}],"stateMutability":"view"},{"type":"function","name":"getTokenWhiteList","inputs":[],"outputs":[{"name":"","type":"address[]","internalType":"address[]"}],"stateMutability":"view"},{"type":"function","name":"grantRewards","inputs":[{"name":"tokenAddress","type":"address","internalType":"address"},{"name":"receiveAddress","type":"address","internalType":"address"},{"name":"amount","type":"uint256","internalType":"uint256"}],"outputs":[],"stateMutability":"nonpayable"},{"type":"function","name":"grantRole","inputs":[{"name":"role","type":"bytes32","internalType":"bytes32"},{"name":"account","type":"address","internalType":"address"}],"outputs":[],"stateMutability":"nonpayable"},{"type":"function","name":"hasRole","inputs":[{"name":"role","type":"bytes32","internalType":"bytes32"},{"name":"account","type":"address","internalType":"address"}],"outputs":[{"name":"","type":"bool","internalType":"bool"}],"stateMutability":"view"},{"type":"function","name":"initialize","inputs":[{"name":"_initialOwner","type":"address","internalType":"address"},{"name":"_treasureManager","type":"address","internalType":"address"},{"name":"_withdrawManager","type":"address","internalType":"address"}],"outputs":[],"stateMutability":"nonpayable"},{"type":"function","name":"owner","inputs":[],"outputs":[{"name":"","type":"address","internalType":"address"}],"stateMutability":"view"},{"type":"function","name":"queryRewards","inputs":[{"name":"tokenAddress","type":"address","internalType":"address"}],"outputs":[{"name":"","type":"uint256","internalType":"uint256"}],"stateMutability":"view"},{"type":"function","name":"renounceOwnership","inputs":[],"outputs":[],"stateMutability":"nonpayable"},{"type":"function","name":"renounceRole","inputs":[{"name":"role","type":"bytes32","internalType":"bytes32"},{"name":"callerConfirmation","type":"address","internalType":"address"}],"outputs":[],"stateMutability":"nonpayable"},{"type":"function","name":"revokeRole","inputs":[{"name":"role","type":"bytes32","internalType":"bytes32"},{"name":"account","type":"address","internalType":"address"}],"outputs":[],"stateMutability":"nonpayable"},{"type":"function","name":"setTokenWhiteList","inputs":[{"name":"tokenAddress","type":"address","internalType":"address"}],"outputs":[],"stateMutability":"nonpayable"},{"type":"function","name":"setWithdrawManager","inputs":[{"name":"_withManager","type":"address","internalType":"address"}],"outputs":[],"stateMutability":"nonpayable"},{"type":"function","name":"supportsInterface","inputs":[{"name":"interfaceId","type":"bytes4","internalType":"bytes4"}],"outputs":[{"name":"","type":"bool","internalType":"bool"}],"stateMutability":"view"},{"type":"function","name":"tokenBalances","inputs":[{"name":"","type":"address","internalType":"address"}],"outputs":[{"name":"","type":"uint256","internalType":"uint256"}],"stateMutability":"view"},{"type":"function","name":"tokenWhiteList","inputs":[{"name":"","type":"uint256","internalType":"uint256"}],"outputs":[{"name":"","type":"address","internalType":"address"}],"stateMutability":"view"},{"type":"function","name":"transferOwnership","inputs":[{"name":"newOwner","type":"address","internalType":"address"}],"outputs":[],"stateMutability":"nonpayable"},{"type":"function","name":"treasureManager","inputs":[],"outputs":[{"name":"","type":"address","internalType":"address"}],"stateMutability":"view"},{"type":"function","name":"userRewardAmounts","inputs":[{"name":"","type":"address","internalType":"address"},{"name":"","type":"address","internalType":"address"}],"outputs":[{"name":"","type":"uint256","internalType":"uint256"}],"stateMutability":"view"},{"type":"function","name":"withdrawERC20","inputs":[{"name":"tokenAddress","type":"address","internalType":"contract IERC20"},{"name":"withdrawAddress","type":"address","internalType":"address"},{"name":"amount","type":"uint256","internalType":"uint256"}],"outputs":[{"name":"","type":"bool","internalType":"bool"}],"stateMutability":"nonpayable"},{"type":"function","name":"withdrawETH","inputs":[{"name":"withdrawAddress","type":"address","internalType":"address payable"},{"name":"amount","type":"uint256","internalType":"uint256"}],"outputs":[{"name":"","type":"bool","internalType":"bool"}],"stateMutability":"payable"},{"type":"function","name":"withdrawManager","inputs":[],"outputs":[{"name":"","type":"address","internalType":"address"}],"stateMutability":"view"},{"type":"event","name":"DepositToken","inputs":[{"name":"tokenAddress","type":"address","indexed":true,"internalType":"address"},{"name":"sender","type":"address","indexed":true,"internalType":"address"},{"name":"amount","type":"uint256","indexed":false,"internalType":"uint256"}],"anonymous":false},{"type":"event","name":"GrantRewardTokenAmount","inputs":[{"name":"tokenAddress","type":"address","indexed":true,"internalType":"address"},{"name":"granter","type":"address","indexed":false,"internalType":"address"},{"name":"amount","type":"uint256","indexed":false,"internalType":"uint256"}],"anonymous":false},{"type":"event","name":"Initialized","inputs":[{"name":"version","type":"uint64","indexed":false,"internalType":"uint64"}],"anonymous":false},{"type":"event","name":"OwnershipTransferred","inputs":[{"name":"previousOwner","type":"address","indexed":true,"internalType":"address"},{"name":"newOwner","type":"address","indexed":true,"internalType":"address"}],"anonymous":false},{"type":"event","name":"RoleAdminChanged","inputs":[{"name":"role","type":"bytes32","indexed":true,"internalType":"bytes32"},{"name":"previousAdminRole","type":"bytes32","indexed":true,"internalType":"bytes32"},{"name":"newAdminRole","type":"bytes32","indexed":true,"internalType":"bytes32"}],"anonymous":false},{"type":"event","name":"RoleGranted","inputs":[{"name":"role","type":"bytes32","indexed":true,"internalType":"bytes32"},{"name":"account","type":"address","indexed":true,"internalType":"address"},{"name":"sender","type":"address","indexed":true,"internalType":"address"}],"anonymous":false},{"type":"event","name":"RoleRevoked","inputs":[{"name":"role","type":"bytes32","indexed":true,"internalType":"bytes32"},{"name":"account","type":"address","indexed":true,"internalType":"address"},{"name":"sender","type":"address","indexed":true,"internalType":"address"}],"anonymous":false},{"type":"event","name":"WithdrawManagerUpdate","inputs":[{"name":"withdrawManager","type":"address","indexed":true,"internalType":"address"}],"anonymous":false},{"type":"event","name":"WithdrawToken","inputs":[{"name":"tokenAddress","type":"address","indexed":true,"internalType":"address"},{"name":"sender","type":"address","indexed":false,"internalType":"address"},{"name":"withdrawAddress","type":"address","indexed":false,"internalType":"address"},{"name":"amount","type":"uint256","indexed":false,"internalType":"uint256"}],"anonymous":false},{"type":"error","name":"AccessControlBadConfirmation","inputs":[]},{"type":"error","name":"AccessControlUnauthorizedAccount","inputs":[{"name":"account","type":"address","internalType":"address"},{"name":"neededRole","type":"bytes32","internalType":"bytes32"}]},{"type":"error","name":"InvalidInitialization","inputs":[]},{"type":"error","name":"IsZeroAddress","inputs":[]},{"type":"error","name":"NotInitializing","inputs":[]},{"type":"error","name":"OwnableInvalidOwner","inputs":[{"name":"owner","type":"address","internalType":"address"}]},{"type":"error","name":"OwnableUnauthorizedAccount","inputs":[{"name":"account","type":"address","internalType":"address"}]},{"type":"error","name":"ReentrancyGuardReentrantCall","inputs":[]},{"type":"error","name":"SafeERC20FailedOperation","inputs":[{"name":"token","type":"address","internalType":"address"}]}],"bytecode":{"object":"0x6080604052348015600e575f5ffd5b50612f6a8061001c5f395ff3fe6080604052600436106101ba575f3560e01c80634782f779116100eb578063a217fddf11610089578063d547741f11610063578063d547741f1461062f578063ec3e9da514610657578063f2fde38b14610681578063f6326fb3146106a9576101c9565b8063a217fddf146105b5578063a2672ad7146105df578063c0c53b8b14610607576101c9565b8063715018a6116100c5578063715018a6146104fd5780638da5cb5b1461051357806391d148541461053d57806397feb92614610579576101c9565b80634782f77914610455578063523fba7f14610485578063659f2456146104c1576101c9565b8063254c5d871161015857806336568abe1161013257806336568abe1461039f578063410c9f9a146103c757806341398b15146103ef57806344004cc114610419576101c9565b8063254c5d87146103135780632f2ff15d1461034f57806332f289cf14610377576101c9565b806317e3e2e81161019457806317e3e2e81461026f5780631e4bd42c1461029757806323ecdbee146102ad578063248a9ca3146102d7576101c9565b806301ffc9a7146101cd57806303186d22146102095780630ec08b0014610233576101c9565b366101c9576101c76106c7565b005b5f5ffd5b3480156101d8575f5ffd5b506101f360048036038101906101ee9190612415565b6107bf565b604051610200919061245a565b60405180910390f35b348015610214575f5ffd5b5061021d610838565b60405161022a91906124b2565b60405180910390f35b34801561023e575f5ffd5b50610259600480360381019061025491906124fe565b61085c565b60405161026691906124b2565b60405180910390f35b34801561027a575f5ffd5b5061029560048036038101906102909190612553565b610897565b005b3480156102a2575f5ffd5b506102ab610925565b005b3480156102b8575f5ffd5b506102c1610c0e565b6040516102ce9190612635565b60405180910390f35b3480156102e2575f5ffd5b506102fd60048036038101906102f89190612688565b610c99565b60405161030a91906126c2565b60405180910390f35b34801561031e575f5ffd5b50610339600480360381019061033491906126db565b610cc3565b6040516103469190612728565b60405180910390f35b34801561035a575f5ffd5b5061037560048036038101906103709190612741565b610ce3565b005b348015610382575f5ffd5b5061039d60048036038101906103989190612553565b610d05565b005b3480156103aa575f5ffd5b506103c560048036038101906103c09190612741565b610fc8565b005b3480156103d2575f5ffd5b506103ed60048036038101906103e8919061277f565b611043565b005b3480156103fa575f5ffd5b5061040361125b565b60405161041091906124b2565b60405180910390f35b348015610424575f5ffd5b5061043f600480360381019061043a919061280a565b611273565b60405161044c919061245a565b60405180910390f35b61046f600480360381019061046a9190612895565b61145d565b60405161047c919061245a565b60405180910390f35b348015610490575f5ffd5b506104ab60048036038101906104a69190612553565b61167f565b6040516104b89190612728565b60405180910390f35b3480156104cc575f5ffd5b506104e760048036038101906104e29190612553565b611694565b6040516104f49190612728565b60405180910390f35b348015610508575f5ffd5b50610511611715565b005b34801561051e575f5ffd5b50610527611728565b60405161053491906124b2565b60405180910390f35b348015610548575f5ffd5b50610563600480360381019061055e9190612741565b61175d565b604051610570919061245a565b60405180910390f35b348015610584575f5ffd5b5061059f600480360381019061059a91906128d3565b6117ce565b6040516105ac919061245a565b60405180910390f35b3480156105c0575f5ffd5b506105c96118be565b6040516105d691906126c2565b60405180910390f35b3480156105ea575f5ffd5b5061060560048036038101906106009190612553565b6118c4565b005b348015610612575f5ffd5b5061062d60048036038101906106289190612911565b611a1a565b005b34801561063a575f5ffd5b5061065560048036038101906106509190612741565b611c1c565b005b348015610662575f5ffd5b5061066b611c3e565b60405161067891906124b2565b60405180910390f35b34801561068c575f5ffd5b506106a760048036038101906106a29190612553565b611c63565b005b6106b16106c7565b6040516106be919061245a565b60405180910390f35b5f6106d0611ce7565b3460035f73eeeeeeeeeeeeeeeeeeeeeeeeeeeeeeeeeeeeeeee73ffffffffffffffffffffffffffffffffffffffff1673ffffffffffffffffffffffffffffffffffffffff1681526020019081526020015f205f828254610730919061298e565b925050819055503373ffffffffffffffffffffffffffffffffffffffff1673eeeeeeeeeeeeeeeeeeeeeeeeeeeeeeeeeeeeeeee73ffffffffffffffffffffffffffffffffffffffff167f4b3f81827ede20c81afbf1bb77b954afcdcae24d391d99042310cb1d9210dd57346040516107a89190612728565b60405180910390a3600190506107bc611d3b565b90565b5f7f7965db0b000000000000000000000000000000000000000000000000000000007bffffffffffffffffffffffffffffffffffffffffffffffffffffffff1916827bffffffffffffffffffffffffffffffffffffffffffffffffffffffff19161480610831575061083082611d52565b5b9050919050565b5f5f9054906101000a900473ffffffffffffffffffffffffffffffffffffffff1681565b6002818154811061086b575f80fd5b905f5260205f20015f915054906101000a900473ffffffffffffffffffffffffffffffffffffffff1681565b61089f611dbb565b8060015f6101000a81548173ffffffffffffffffffffffffffffffffffffffff021916908373ffffffffffffffffffffffffffffffffffffffff1602179055508073ffffffffffffffffffffffffffffffffffffffff167f799e16a314d482c87bc47fd219011aaf33f4f9c7e302be5d7a0af286a52998b960405160405180910390a250565b61092d611ce7565b5f5f90505b600280549050811015610c03575f60028281548110610954576109536129c1565b5b905f5260205f20015f9054906101000a900473ffffffffffffffffffffffffffffffffffffffff1690505f60045f3373ffffffffffffffffffffffffffffffffffffffff1673ffffffffffffffffffffffffffffffffffffffff1681526020019081526020015f205f8373ffffffffffffffffffffffffffffffffffffffff1673ffffffffffffffffffffffffffffffffffffffff1681526020019081526020015f205490505f811115610bf4575f60045f3373ffffffffffffffffffffffffffffffffffffffff1673ffffffffffffffffffffffffffffffffffffffff1681526020019081526020015f205f8473ffffffffffffffffffffffffffffffffffffffff1673ffffffffffffffffffffffffffffffffffffffff1681526020019081526020015f20819055508060035f8473ffffffffffffffffffffffffffffffffffffffff1673ffffffffffffffffffffffffffffffffffffffff1681526020019081526020015f205f828254610acb91906129ee565b9250508190555073eeeeeeeeeeeeeeeeeeeeeeeeeeeeeeeeeeeeeeee73ffffffffffffffffffffffffffffffffffffffff168273ffffffffffffffffffffffffffffffffffffffff1603610bc7575f3373ffffffffffffffffffffffffffffffffffffffff1682604051610b3e90612a4e565b5f6040518083038185875af1925050503d805f8114610b78576040519150601f19603f3d011682016040523d82523d5f602084013e610b7d565b606091505b5050905080610bc1576040517f08c379a0000000000000000000000000000000000000000000000000000000008152600401610bb890612abc565b60405180910390fd5b50610bf3565b610bf233828473ffffffffffffffffffffffffffffffffffffffff16611e429092919063ffffffff16565b5b5b50508080600101915050610932565b50610c0c611d3b565b565b60606002805480602002602001604051908101604052809291908181526020018280548015610c8f57602002820191905f5260205f20905b815f9054906101000a900473ffffffffffffffffffffffffffffffffffffffff1673ffffffffffffffffffffffffffffffffffffffff1681526020019060010190808311610c46575b5050505050905090565b5f5f610ca3611ec1565b9050805f015f8481526020019081526020015f2060010154915050919050565b6004602052815f5260405f20602052805f5260405f205f91509150505481565b610cec82610c99565b610cf581611ee8565b610cff8383611efc565b50505050565b610d0d611ce7565b5f60045f3373ffffffffffffffffffffffffffffffffffffffff1673ffffffffffffffffffffffffffffffffffffffff1681526020019081526020015f205f8373ffffffffffffffffffffffffffffffffffffffff1673ffffffffffffffffffffffffffffffffffffffff1681526020019081526020015f205490505f8111610dcb576040517f08c379a0000000000000000000000000000000000000000000000000000000008152600401610dc290612b24565b60405180910390fd5b8060035f8473ffffffffffffffffffffffffffffffffffffffff1673ffffffffffffffffffffffffffffffffffffffff1681526020019081526020015f205f828254610e1791906129ee565b925050819055505f60045f3373ffffffffffffffffffffffffffffffffffffffff1673ffffffffffffffffffffffffffffffffffffffff1681526020019081526020015f205f8473ffffffffffffffffffffffffffffffffffffffff1673ffffffffffffffffffffffffffffffffffffffff1681526020019081526020015f208190555073eeeeeeeeeeeeeeeeeeeeeeeeeeeeeeeeeeeeeeee73ffffffffffffffffffffffffffffffffffffffff168273ffffffffffffffffffffffffffffffffffffffff1603610f90575f3373ffffffffffffffffffffffffffffffffffffffff1682604051610f0790612a4e565b5f6040518083038185875af1925050503d805f8114610f41576040519150601f19603f3d011682016040523d82523d5f602084013e610f46565b606091505b5050905080610f8a576040517f08c379a0000000000000000000000000000000000000000000000000000000008152600401610f8190612abc565b60405180910390fd5b50610fbc565b610fbb33828473ffffffffffffffffffffffffffffffffffffffff16611e429092919063ffffffff16565b5b50610fc5611d3b565b50565b610fd0611ff4565b73ffffffffffffffffffffffffffffffffffffffff168173ffffffffffffffffffffffffffffffffffffffff1614611034576040517f6697b23200000000000000000000000000000000000000000000000000000000815260040160405180910390fd5b61103e8282611ffb565b505050565b5f5f9054906101000a900473ffffffffffffffffffffffffffffffffffffffff1673ffffffffffffffffffffffffffffffffffffffff163373ffffffffffffffffffffffffffffffffffffffff16146110d1576040517f08c379a00000000000000000000000000000000000000000000000000000000081526004016110c890612bb2565b60405180910390fd5b5f73ffffffffffffffffffffffffffffffffffffffff168373ffffffffffffffffffffffffffffffffffffffff161415801561113957505f73ffffffffffffffffffffffffffffffffffffffff168273ffffffffffffffffffffffffffffffffffffffff1614155b611178576040517f08c379a000000000000000000000000000000000000000000000000000000000815260040161116f90612c1a565b60405180910390fd5b8060045f8473ffffffffffffffffffffffffffffffffffffffff1673ffffffffffffffffffffffffffffffffffffffff1681526020019081526020015f205f8573ffffffffffffffffffffffffffffffffffffffff1673ffffffffffffffffffffffffffffffffffffffff1681526020019081526020015f205f8282546111ff919061298e565b925050819055508273ffffffffffffffffffffffffffffffffffffffff167f10621458f3ad2a9cfcb87c216122570629e44079d6af4d717035eb55d2c60424838360405161124e929190612c38565b60405180910390a2505050565b73eeeeeeeeeeeeeeeeeeeeeeeeeeeeeeeeeeeeeeee81565b5f60015f9054906101000a900473ffffffffffffffffffffffffffffffffffffffff1673ffffffffffffffffffffffffffffffffffffffff163373ffffffffffffffffffffffffffffffffffffffff1614611303576040517f08c379a00000000000000000000000000000000000000000000000000000000081526004016112fa90612ccf565b60405180910390fd5b8160035f8673ffffffffffffffffffffffffffffffffffffffff1673ffffffffffffffffffffffffffffffffffffffff1681526020019081526020015f205411611382576040517f08c379a000000000000000000000000000000000000000000000000000000000815260040161137990612d5d565b60405180910390fd5b6113ad83838673ffffffffffffffffffffffffffffffffffffffff16611e429092919063ffffffff16565b8160035f8673ffffffffffffffffffffffffffffffffffffffff1673ffffffffffffffffffffffffffffffffffffffff1681526020019081526020015f205f8282546113f991906129ee565b925050819055508373ffffffffffffffffffffffffffffffffffffffff167f9ca7c1e047552a8048d924a5a8d3c150eb861086a72a9100e5f19d1176c1b74633858560405161144a93929190612d7b565b60405180910390a2600190509392505050565b5f60015f9054906101000a900473ffffffffffffffffffffffffffffffffffffffff1673ffffffffffffffffffffffffffffffffffffffff163373ffffffffffffffffffffffffffffffffffffffff16146114ed576040517f08c379a00000000000000000000000000000000000000000000000000000000081526004016114e490612ccf565b60405180910390fd5b81471015611530576040517f08c379a000000000000000000000000000000000000000000000000000000000815260040161152790612dfa565b60405180910390fd5b5f8373ffffffffffffffffffffffffffffffffffffffff168360405161155590612a4e565b5f6040518083038185875af1925050503d805f811461158f576040519150601f19603f3d011682016040523d82523d5f602084013e611594565b606091505b50509050806115a6575f915050611679565b8260035f73eeeeeeeeeeeeeeeeeeeeeeeeeeeeeeeeeeeeeeee73ffffffffffffffffffffffffffffffffffffffff1673ffffffffffffffffffffffffffffffffffffffff1681526020019081526020015f205f82825461160691906129ee565b9250508190555073eeeeeeeeeeeeeeeeeeeeeeeeeeeeeeeeeeeeeeee73ffffffffffffffffffffffffffffffffffffffff167f9ca7c1e047552a8048d924a5a8d3c150eb861086a72a9100e5f19d1176c1b74633868660405161166b93929190612e73565b60405180910390a260019150505b92915050565b6003602052805f5260405f205f915090505481565b5f60045f3373ffffffffffffffffffffffffffffffffffffffff1673ffffffffffffffffffffffffffffffffffffffff1681526020019081526020015f205f8373ffffffffffffffffffffffffffffffffffffffff1673ffffffffffffffffffffffffffffffffffffffff1681526020019081526020015f20549050919050565b61171d611dbb565b6117265f6120f3565b565b5f5f6117326121c4565b9050805f015f9054906101000a900473ffffffffffffffffffffffffffffffffffffffff1691505090565b5f5f611767611ec1565b9050805f015f8581526020019081526020015f205f015f8473ffffffffffffffffffffffffffffffffffffffff1673ffffffffffffffffffffffffffffffffffffffff1681526020019081526020015f205f9054906101000a900460ff1691505092915050565b5f8160035f8573ffffffffffffffffffffffffffffffffffffffff1673ffffffffffffffffffffffffffffffffffffffff1681526020019081526020015f205f82825461181b919061298e565b9250508190555061184f3330848673ffffffffffffffffffffffffffffffffffffffff166121eb909392919063ffffffff16565b3373ffffffffffffffffffffffffffffffffffffffff168373ffffffffffffffffffffffffffffffffffffffff167f4b3f81827ede20c81afbf1bb77b954afcdcae24d391d99042310cb1d9210dd57846040516118ac9190612728565b60405180910390a36001905092915050565b5f5f1b81565b5f5f9054906101000a900473ffffffffffffffffffffffffffffffffffffffff1673ffffffffffffffffffffffffffffffffffffffff163373ffffffffffffffffffffffffffffffffffffffff1614611952576040517f08c379a000000000000000000000000000000000000000000000000000000000815260040161194990612bb2565b60405180910390fd5b5f73ffffffffffffffffffffffffffffffffffffffff168173ffffffffffffffffffffffffffffffffffffffff16036119b7576040517f1326d6d500000000000000000000000000000000000000000000000000000000815260040160405180910390fd5b600281908060018154018082558091505060019003905f5260205f20015f9091909190916101000a81548173ffffffffffffffffffffffffffffffffffffffff021916908373ffffffffffffffffffffffffffffffffffffffff16021790555050565b5f611a2361226d565b90505f815f0160089054906101000a900460ff161590505f825f015f9054906101000a900467ffffffffffffffff1690505f5f8267ffffffffffffffff16148015611a6b5750825b90505f60018367ffffffffffffffff16148015611a9e57505f3073ffffffffffffffffffffffffffffffffffffffff163b145b905081158015611aac575080155b15611ae3576040517ff92ee8a900000000000000000000000000000000000000000000000000000000815260040160405180910390fd5b6001855f015f6101000a81548167ffffffffffffffff021916908367ffffffffffffffff1602179055508315611b30576001855f0160086101000a81548160ff0219169083151502179055505b865f5f6101000a81548173ffffffffffffffffffffffffffffffffffffffff021916908373ffffffffffffffffffffffffffffffffffffffff1602179055508560015f6101000a81548173ffffffffffffffffffffffffffffffffffffffff021916908373ffffffffffffffffffffffffffffffffffffffff160217905550611bb8886120f3565b8315611c12575f855f0160086101000a81548160ff0219169083151502179055507fc7f505b2f371ae2175ee4913f4499e1f2633a7b5936321eed1cdaeb6115181d26001604051611c099190612ef4565b60405180910390a15b5050505050505050565b611c2582610c99565b611c2e81611ee8565b611c388383611ffb565b50505050565b60015f9054906101000a900473ffffffffffffffffffffffffffffffffffffffff1681565b611c6b611dbb565b5f73ffffffffffffffffffffffffffffffffffffffff168173ffffffffffffffffffffffffffffffffffffffff1603611cdb575f6040517f1e4fbdf7000000000000000000000000000000000000000000000000000000008152600401611cd291906124b2565b60405180910390fd5b611ce4816120f3565b50565b5f611cf0612280565b90506002815f015403611d2f576040517f3ee5aeb500000000000000000000000000000000000000000000000000000000815260040160405180910390fd5b6002815f018190555050565b5f611d44612280565b90506001815f018190555050565b5f7f01ffc9a7000000000000000000000000000000000000000000000000000000007bffffffffffffffffffffffffffffffffffffffffffffffffffffffff1916827bffffffffffffffffffffffffffffffffffffffffffffffffffffffff1916149050919050565b611dc3611ff4565b73ffffffffffffffffffffffffffffffffffffffff16611de1611728565b73ffffffffffffffffffffffffffffffffffffffff1614611e4057611e04611ff4565b6040517f118cdaa7000000000000000000000000000000000000000000000000000000008152600401611e3791906124b2565b60405180910390fd5b565b611ebc838473ffffffffffffffffffffffffffffffffffffffff1663a9059cbb8585604051602401611e75929190612c38565b604051602081830303815290604052915060e01b6020820180517bffffffffffffffffffffffffffffffffffffffffffffffffffffffff83818316178352505050506122a7565b505050565b5f7f02dd7bc7dec4dceedda775e58dd541e08a116c6c53815c0bd028192f7b626800905090565b611ef981611ef4611ff4565b612342565b50565b5f5f611f06611ec1565b9050611f12848461175d565b611fe9576001815f015f8681526020019081526020015f205f015f8573ffffffffffffffffffffffffffffffffffffffff1673ffffffffffffffffffffffffffffffffffffffff1681526020019081526020015f205f6101000a81548160ff021916908315150217905550611f85611ff4565b73ffffffffffffffffffffffffffffffffffffffff168373ffffffffffffffffffffffffffffffffffffffff16857f2f8788117e7eff1d82e926ec794901d17c78024a50270940304540a733656f0d60405160405180910390a46001915050611fee565b5f9150505b92915050565b5f33905090565b5f5f612005611ec1565b9050612011848461175d565b156120e8575f815f015f8681526020019081526020015f205f015f8573ffffffffffffffffffffffffffffffffffffffff1673ffffffffffffffffffffffffffffffffffffffff1681526020019081526020015f205f6101000a81548160ff021916908315150217905550612084611ff4565b73ffffffffffffffffffffffffffffffffffffffff168373ffffffffffffffffffffffffffffffffffffffff16857ff6391f5c32d9c69d2a47ea670b442974b53935d1edc7fd64eb21e047a839171b60405160405180910390a460019150506120ed565b5f9150505b92915050565b5f6120fc6121c4565b90505f815f015f9054906101000a900473ffffffffffffffffffffffffffffffffffffffff16905082825f015f6101000a81548173ffffffffffffffffffffffffffffffffffffffff021916908373ffffffffffffffffffffffffffffffffffffffff1602179055508273ffffffffffffffffffffffffffffffffffffffff168173ffffffffffffffffffffffffffffffffffffffff167f8be0079c531659141344cd1fd0a4f28419497f9722a3daafe3b4186f6b6457e060405160405180910390a3505050565b5f7f9016d09d72d40fdae2fd8ceac6b6234c7706214fd39c1cd1e609a0528c199300905090565b612267848573ffffffffffffffffffffffffffffffffffffffff166323b872dd86868660405160240161222093929190612d7b565b604051602081830303815290604052915060e01b6020820180517bffffffffffffffffffffffffffffffffffffffffffffffffffffffff83818316178352505050506122a7565b50505050565b5f5f612277612393565b90508091505090565b5f7f9b779b17422d0df92223018b32b4d1fa46e071723d6817e2486d003becc55f00905090565b5f5f60205f8451602086015f885af1806122c6576040513d5f823e3d81fd5b3d92505f519150505f82146122df5760018114156122fa565b5f8473ffffffffffffffffffffffffffffffffffffffff163b145b1561233c57836040517f5274afe700000000000000000000000000000000000000000000000000000000815260040161233391906124b2565b60405180910390fd5b50505050565b61234c828261175d565b61238f5780826040517fe2517d3f000000000000000000000000000000000000000000000000000000008152600401612386929190612f0d565b60405180910390fd5b5050565b5f7ff0c57e16840df040f15088dc2f81fe391c3923bec73e23a9662efc9c229c6a005f1b905090565b5f5ffd5b5f7fffffffff0000000000000000000000000000000000000000000000000000000082169050919050565b6123f4816123c0565b81146123fe575f5ffd5b50565b5f8135905061240f816123eb565b92915050565b5f6020828403121561242a576124296123bc565b5b5f61243784828501612401565b91505092915050565b5f8115159050919050565b61245481612440565b82525050565b5f60208201905061246d5f83018461244b565b92915050565b5f73ffffffffffffffffffffffffffffffffffffffff82169050919050565b5f61249c82612473565b9050919050565b6124ac81612492565b82525050565b5f6020820190506124c55f8301846124a3565b92915050565b5f819050919050565b6124dd816124cb565b81146124e7575f5ffd5b50565b5f813590506124f8816124d4565b92915050565b5f60208284031215612513576125126123bc565b5b5f612520848285016124ea565b91505092915050565b61253281612492565b811461253c575f5ffd5b50565b5f8135905061254d81612529565b92915050565b5f60208284031215612568576125676123bc565b5b5f6125758482850161253f565b91505092915050565b5f81519050919050565b5f82825260208201905092915050565b5f819050602082019050919050565b6125b081612492565b82525050565b5f6125c183836125a7565b60208301905092915050565b5f602082019050919050565b5f6125e38261257e565b6125ed8185612588565b93506125f883612598565b805f5b8381101561262857815161260f88826125b6565b975061261a836125cd565b9250506001810190506125fb565b5085935050505092915050565b5f6020820190508181035f83015261264d81846125d9565b905092915050565b5f819050919050565b61266781612655565b8114612671575f5ffd5b50565b5f813590506126828161265e565b92915050565b5f6020828403121561269d5761269c6123bc565b5b5f6126aa84828501612674565b91505092915050565b6126bc81612655565b82525050565b5f6020820190506126d55f8301846126b3565b92915050565b5f5f604083850312156126f1576126f06123bc565b5b5f6126fe8582860161253f565b925050602061270f8582860161253f565b9150509250929050565b612722816124cb565b82525050565b5f60208201905061273b5f830184612719565b92915050565b5f5f60408385031215612757576127566123bc565b5b5f61276485828601612674565b92505060206127758582860161253f565b9150509250929050565b5f5f5f60608486031215612796576127956123bc565b5b5f6127a38682870161253f565b93505060206127b48682870161253f565b92505060406127c5868287016124ea565b9150509250925092565b5f6127d982612492565b9050919050565b6127e9816127cf565b81146127f3575f5ffd5b50565b5f81359050612804816127e0565b92915050565b5f5f5f60608486031215612821576128206123bc565b5b5f61282e868287016127f6565b935050602061283f8682870161253f565b9250506040612850868287016124ea565b9150509250925092565b5f61286482612473565b9050919050565b6128748161285a565b811461287e575f5ffd5b50565b5f8135905061288f8161286b565b92915050565b5f5f604083850312156128ab576128aa6123bc565b5b5f6128b885828601612881565b92505060206128c9858286016124ea565b9150509250929050565b5f5f604083850312156128e9576128e86123bc565b5b5f6128f6858286016127f6565b9250506020612907858286016124ea565b9150509250929050565b5f5f5f60608486031215612928576129276123bc565b5b5f6129358682870161253f565b93505060206129468682870161253f565b92505060406129578682870161253f565b9150509250925092565b7f4e487b71000000000000000000000000000000000000000000000000000000005f52601160045260245ffd5b5f612998826124cb565b91506129a3836124cb565b92508282019050808211156129bb576129ba612961565b5b92915050565b7f4e487b71000000000000000000000000000000000000000000000000000000005f52603260045260245ffd5b5f6129f8826124cb565b9150612a03836124cb565b9250828203905081811115612a1b57612a1a612961565b5b92915050565b5f81905092915050565b50565b5f612a395f83612a21565b9150612a4482612a2b565b5f82019050919050565b5f612a5882612a2e565b9150819050919050565b5f82825260208201905092915050565b7f455448207472616e73666572206661696c6564000000000000000000000000005f82015250565b5f612aa6601383612a62565b9150612ab182612a72565b602082019050919050565b5f6020820190508181035f830152612ad381612a9a565b9050919050565b7f746f6b656e206e6f7420656e6f756768000000000000000000000000000000005f82015250565b5f612b0e601083612a62565b9150612b1982612ada565b602082019050919050565b5f6020820190508181035f830152612b3b81612b02565b9050919050565b7f54726561737572654d616e616765722e6f6e6c7954726561737572654d616e615f8201527f6765720000000000000000000000000000000000000000000000000000000000602082015250565b5f612b9c602383612a62565b9150612ba782612b42565b604082019050919050565b5f6020820190508181035f830152612bc981612b90565b9050919050565b7f496e76616c6964206164647265737300000000000000000000000000000000005f82015250565b5f612c04600f83612a62565b9150612c0f82612bd0565b602082019050919050565b5f6020820190508181035f830152612c3181612bf8565b9050919050565b5f604082019050612c4b5f8301856124a3565b612c586020830184612719565b9392505050565b7f77697468647261774d616e616765722e6f6e6c7957697468647261774d616e615f8201527f6765720000000000000000000000000000000000000000000000000000000000602082015250565b5f612cb9602383612a62565b9150612cc482612c5f565b604082019050919050565b5f6020820190508181035f830152612ce681612cad565b9050919050565b7f496e73756666696369656e7420746f6b656e2062616c616e636520696e20636f5f8201527f6e74726163740000000000000000000000000000000000000000000000000000602082015250565b5f612d47602683612a62565b9150612d5282612ced565b604082019050919050565b5f6020820190508181035f830152612d7481612d3b565b9050919050565b5f606082019050612d8e5f8301866124a3565b612d9b60208301856124a3565b612da86040830184612719565b949350505050565b7f636f6e7472616374206164647265737320455448206e6f7420656e6f756768005f82015250565b5f612de4601f83612a62565b9150612def82612db0565b602082019050919050565b5f6020820190508181035f830152612e1181612dd8565b9050919050565b5f819050919050565b5f612e3b612e36612e3184612473565b612e18565b612473565b9050919050565b5f612e4c82612e21565b9050919050565b5f612e5d82612e42565b9050919050565b612e6d81612e53565b82525050565b5f606082019050612e865f8301866124a3565b612e936020830185612e64565b612ea06040830184612719565b949350505050565b5f819050919050565b5f67ffffffffffffffff82169050919050565b5f612ede612ed9612ed484612ea8565b612e18565b612eb1565b9050919050565b612eee81612ec4565b82525050565b5f602082019050612f075f830184612ee5565b92915050565b5f604082019050612f205f8301856124a3565b612f2d60208301846126b3565b939250505056fea2646970667358221220fad4ae1e24c9b2a872c06d2fecaf2974af5c33a96a866a5e6a6501e25d4a445a64736f6c634300081e0033","linkReferences":{}},"methodIdentifiers":{"DEFAULT_ADMIN_ROLE()":"a217fddf","claimAllTokens()":"1e4bd42c","claimToken(address)":"32f289cf","depositERC20(address,uint256)":"97feb926","depositETH()":"f6326fb3","ethAddress()":"41398b15","getRoleAdmin(bytes32)":"248a9ca3","getTokenWhiteList()":"23ecdbee","grantRewards(address,address,uint256)":"410c9f9a","grantRole(bytes32,address)":"2f2ff15d","hasRole(bytes32,address)":"91d14854","initialize(address,address,address)":"c0c53b8b","owner()":"8da5cb5b","queryRewards(address)":"659f2456","renounceOwnership()":"715018a6","renounceRole(bytes32,address)":"36568abe","revokeRole(bytes32,address)":"d547741f","setTokenWhiteList(address)":"a2672ad7","setWithdrawManager(address)":"17e3e2e8","supportsInterface(bytes4)":"01ffc9a7","tokenBalances(address)":"523fba7f","tokenWhiteList(uint256)":"0ec08b00","transferOwnership(address)":"f2fde38b","treasureManager()":"03186d22","userRewardAmounts(address,address)":"254c5d87","withdrawERC20(address,address,uint256)":"44004cc1","withdrawETH(address,uint256)":"4782f779","withdrawManager()":"ec3e9da5"},"id":43}